{
  "_format": "hh-sol-artifact-1",
  "contractName": "DAOGenie",
  "sourceName": "contracts/DAOGenie.sol",
  "abi": [
    {
      "anonymous": false,
      "inputs": [
        {
          "indexed": false,
          "internalType": "uint256",
          "name": "daoId",
          "type": "uint256"
        },
        {
          "indexed": false,
          "internalType": "address",
          "name": "creator",
          "type": "address"
        },
        {
          "indexed": false,
          "internalType": "string",
          "name": "name",
          "type": "string"
        }
      ],
      "name": "DAOCreated",
      "type": "event"
    },
    {
      "anonymous": false,
      "inputs": [
        {
          "indexed": false,
          "internalType": "uint256",
          "name": "daoId",
          "type": "uint256"
        },
        {
          "indexed": false,
          "internalType": "address",
          "name": "from",
          "type": "address"
        },
        {
          "indexed": false,
          "internalType": "address",
          "name": "to",
          "type": "address"
        },
        {
          "indexed": false,
          "internalType": "uint256",
          "name": "amount",
          "type": "uint256"
        }
      ],
      "name": "DAOVotesReallocated",
      "type": "event"
    },
    {
      "anonymous": false,
      "inputs": [
        {
          "indexed": false,
          "internalType": "uint256",
          "name": "daoId",
          "type": "uint256"
        },
        {
          "indexed": false,
          "internalType": "uint256",
          "name": "proposalIndex",
          "type": "uint256"
        },
        {
          "indexed": false,
          "internalType": "address",
          "name": "creator",
          "type": "address"
        },
        {
          "indexed": false,
          "internalType": "string",
          "name": "title",
          "type": "string"
        }
      ],
      "name": "ProposalCreated",
      "type": "event"
    },
    {
      "anonymous": false,
      "inputs": [
        {
          "indexed": false,
          "internalType": "uint256",
          "name": "daoId",
          "type": "uint256"
        },
        {
          "indexed": false,
          "internalType": "uint256",
          "name": "proposalIndex",
          "type": "uint256"
        }
      ],
      "name": "ProposalPassed",
      "type": "event"
    },
    {
      "anonymous": false,
      "inputs": [
        {
          "indexed": false,
          "internalType": "uint256",
          "name": "daoId",
          "type": "uint256"
        },
        {
          "indexed": false,
          "internalType": "uint256",
          "name": "proposalIndex",
          "type": "uint256"
        },
        {
          "indexed": false,
          "internalType": "address",
          "name": "voter",
          "type": "address"
        },
        {
          "indexed": false,
          "internalType": "uint256",
          "name": "votes",
          "type": "uint256"
        }
      ],
      "name": "ProposalVotedOn",
      "type": "event"
    },
    {
      "inputs": [
        {
          "internalType": "string",
          "name": "name",
          "type": "string"
        },
        {
          "internalType": "address",
          "name": "treasuryAddress",
          "type": "address"
        }
      ],
      "name": "createDAO",
      "outputs": [
        {
          "internalType": "uint256",
          "name": "",
          "type": "uint256"
        }
      ],
      "stateMutability": "nonpayable",
      "type": "function"
    },
    {
      "inputs": [
        {
          "internalType": "uint256",
          "name": "daoId",
          "type": "uint256"
        },
        {
          "internalType": "string",
          "name": "title",
          "type": "string"
        },
        {
          "internalType": "string",
          "name": "description",
          "type": "string"
        }
      ],
      "name": "createProposal",
      "outputs": [],
      "stateMutability": "nonpayable",
      "type": "function"
    },
    {
      "inputs": [
        {
          "internalType": "uint256",
          "name": "",
          "type": "uint256"
        },
        {
          "internalType": "uint256",
          "name": "",
          "type": "uint256"
        }
      ],
      "name": "daoMembers",
      "outputs": [
        {
          "internalType": "address",
          "name": "",
          "type": "address"
        }
      ],
      "stateMutability": "view",
      "type": "function"
    },
    {
      "inputs": [
        {
          "internalType": "uint256",
          "name": "",
          "type": "uint256"
        },
        {
          "internalType": "uint256",
          "name": "",
          "type": "uint256"
        }
      ],
      "name": "daoProposals",
      "outputs": [
        {
          "internalType": "address",
          "name": "creator",
          "type": "address"
        },
        {
          "internalType": "uint256",
          "name": "createdAt",
          "type": "uint256"
        },
        {
          "internalType": "uint256",
          "name": "votingEndsAt",
          "type": "uint256"
        },
        {
          "internalType": "string",
          "name": "title",
          "type": "string"
        },
        {
          "internalType": "string",
          "name": "description",
          "type": "string"
        },
        {
          "internalType": "bool",
          "name": "passed",
          "type": "bool"
        },
        {
          "internalType": "uint256",
          "name": "votesNeededToPass",
          "type": "uint256"
        },
        {
          "internalType": "uint256",
          "name": "yesVotes",
          "type": "uint256"
        }
      ],
      "stateMutability": "view",
      "type": "function"
    },
    {
      "inputs": [
        {
          "internalType": "uint256",
          "name": "",
          "type": "uint256"
        },
        {
          "internalType": "address",
          "name": "",
          "type": "address"
        }
      ],
      "name": "daoVotes",
      "outputs": [
        {
          "internalType": "uint256",
          "name": "",
          "type": "uint256"
        }
      ],
      "stateMutability": "view",
      "type": "function"
    },
    {
      "inputs": [
        {
          "internalType": "uint256",
          "name": "",
          "type": "uint256"
        }
      ],
      "name": "daos",
      "outputs": [
        {
          "internalType": "uint256",
          "name": "id",
          "type": "uint256"
        },
        {
          "internalType": "uint256",
          "name": "createdAt",
          "type": "uint256"
        },
        {
          "internalType": "string",
          "name": "name",
          "type": "string"
        },
        {
          "internalType": "address",
          "name": "creator",
          "type": "address"
        },
        {
          "internalType": "uint256",
          "name": "totalVotes",
          "type": "uint256"
        },
        {
          "internalType": "uint256",
          "name": "numberOfMembers",
          "type": "uint256"
        },
        {
          "internalType": "uint256",
          "name": "numberOfProposals",
          "type": "uint256"
        },
        {
          "internalType": "address",
          "name": "treasuryAddress",
          "type": "address"
        }
      ],
      "stateMutability": "view",
      "type": "function"
    },
    {
      "inputs": [
        {
          "internalType": "uint256",
          "name": "daoId",
          "type": "uint256"
        }
      ],
      "name": "getDAO",
      "outputs": [
        {
          "components": [
            {
              "internalType": "uint256",
              "name": "id",
              "type": "uint256"
            },
            {
              "internalType": "uint256",
              "name": "createdAt",
              "type": "uint256"
            },
            {
              "internalType": "string",
              "name": "name",
              "type": "string"
            },
            {
              "internalType": "address",
              "name": "creator",
              "type": "address"
            },
            {
              "internalType": "uint256",
              "name": "totalVotes",
              "type": "uint256"
            },
            {
              "internalType": "uint256",
              "name": "numberOfMembers",
              "type": "uint256"
            },
            {
              "internalType": "uint256",
              "name": "numberOfProposals",
              "type": "uint256"
            },
            {
              "internalType": "address",
              "name": "treasuryAddress",
              "type": "address"
            }
          ],
          "internalType": "struct DAOGenie.DAO",
          "name": "",
          "type": "tuple"
        }
      ],
      "stateMutability": "view",
      "type": "function"
    },
    {
      "inputs": [
        {
          "internalType": "uint256",
          "name": "daoId",
          "type": "uint256"
        }
      ],
      "name": "getDaoMembers",
      "outputs": [
        {
          "internalType": "address[]",
          "name": "",
          "type": "address[]"
        }
      ],
      "stateMutability": "view",
      "type": "function"
    },
    {
      "inputs": [
        {
          "internalType": "address",
          "name": "member",
          "type": "address"
        }
      ],
      "name": "getDaosByMember",
      "outputs": [
        {
          "components": [
            {
              "internalType": "uint256",
              "name": "id",
              "type": "uint256"
            },
            {
              "internalType": "uint256",
              "name": "createdAt",
              "type": "uint256"
            },
            {
              "internalType": "string",
              "name": "name",
              "type": "string"
            },
            {
              "internalType": "address",
              "name": "creator",
              "type": "address"
            },
            {
              "internalType": "uint256",
              "name": "totalVotes",
              "type": "uint256"
            },
            {
              "internalType": "uint256",
              "name": "numberOfMembers",
              "type": "uint256"
            },
            {
              "internalType": "uint256",
              "name": "numberOfProposals",
              "type": "uint256"
            },
            {
              "internalType": "address",
              "name": "treasuryAddress",
              "type": "address"
            }
          ],
          "internalType": "struct DAOGenie.DAO[]",
          "name": "",
          "type": "tuple[]"
        }
      ],
      "stateMutability": "view",
      "type": "function"
    },
    {
      "inputs": [
        {
          "internalType": "uint256",
          "name": "daoId",
          "type": "uint256"
        }
      ],
      "name": "getProposals",
      "outputs": [
        {
          "components": [
            {
              "internalType": "address",
              "name": "creator",
              "type": "address"
            },
            {
              "internalType": "uint256",
              "name": "createdAt",
              "type": "uint256"
            },
            {
              "internalType": "uint256",
              "name": "votingEndsAt",
              "type": "uint256"
            },
            {
              "internalType": "string",
              "name": "title",
              "type": "string"
            },
            {
              "internalType": "string",
              "name": "description",
              "type": "string"
            },
            {
              "internalType": "bool",
              "name": "passed",
              "type": "bool"
            },
            {
              "internalType": "uint256",
              "name": "votesNeededToPass",
              "type": "uint256"
            },
            {
              "internalType": "uint256",
              "name": "yesVotes",
              "type": "uint256"
            }
          ],
          "internalType": "struct DAOGenie.Proposal[]",
          "name": "",
          "type": "tuple[]"
        }
      ],
      "stateMutability": "view",
      "type": "function"
    },
    {
      "inputs": [
        {
          "internalType": "uint256",
          "name": "",
          "type": "uint256"
        },
        {
          "internalType": "uint256",
          "name": "",
          "type": "uint256"
        },
        {
          "internalType": "address",
          "name": "",
          "type": "address"
        }
      ],
      "name": "hasVoted",
      "outputs": [
        {
          "internalType": "bool",
          "name": "",
          "type": "bool"
        }
      ],
      "stateMutability": "view",
      "type": "function"
    },
    {
      "inputs": [
        {
          "internalType": "uint256",
          "name": "daoId",
          "type": "uint256"
        },
        {
          "internalType": "uint256",
          "name": "proposalIndex",
          "type": "uint256"
        }
      ],
      "name": "isProposalFailed",
      "outputs": [
        {
          "internalType": "bool",
          "name": "",
          "type": "bool"
        }
      ],
      "stateMutability": "view",
      "type": "function"
    },
    {
      "inputs": [
        {
          "internalType": "uint256",
          "name": "daoId",
          "type": "uint256"
        },
        {
          "internalType": "address",
          "name": "to",
          "type": "address"
        },
        {
          "internalType": "uint256",
          "name": "amount",
          "type": "uint256"
        }
      ],
      "name": "reallocateVotes",
      "outputs": [],
      "stateMutability": "nonpayable",
      "type": "function"
    },
    {
      "inputs": [
        {
          "internalType": "uint256",
          "name": "daoId",
          "type": "uint256"
        },
        {
          "internalType": "uint256",
          "name": "proposalIndex",
          "type": "uint256"
        }
      ],
      "name": "voteOnProposal",
      "outputs": [],
      "stateMutability": "nonpayable",
      "type": "function"
    }
  ],
  "bytecode": "0x60806040526001600055348015601457600080fd5b50613015806100246000396000f3fe608060405234801561001057600080fd5b50600436106100ea5760003560e01c80637a5e3a261161008c578063ccbbd26011610066578063ccbbd260146102a7578063e4ed8aba146102de578063eed1bf6c146102fa578063fe3b23c314610331576100ea565b80637a5e3a261461022b578063848ab41314610247578063be7335d614610277576100ea565b8063556f6cc0116100c8578063556f6cc01461017f5780635a29426c1461019b57806367d5d252146101cb57806378640668146101fb576100ea565b80630d39a1d3146100ef5780632c72fdfc1461011f5780633ce0bf4d1461014f575b600080fd5b61010960048036038101906101049190611d2a565b610361565b6040516101169190611d98565b60405180910390f35b61013960048036038101906101349190611db3565b61039d565b6040516101469190612016565b60405180910390f35b6101696004803603810190610164919061216d565b6105cd565b60405161017691906121d8565b60405180910390f35b610199600480360381019061019491906121f3565b610850565b005b6101b560048036038101906101b09190611db3565b610c11565b6040516101c291906122e3565b60405180910390f35b6101e560048036038101906101e091906121f3565b610daf565b6040516101f29190611d98565b60405180910390f35b61021560048036038101906102109190612305565b610fcf565b60405161022291906121d8565b60405180910390f35b61024560048036038101906102409190612345565b610ff4565b005b610261600480360381019061025c91906121f3565b6112b2565b60405161026e91906123df565b60405180910390f35b610291600480360381019061028c9190611db3565b611300565b60405161029e91906124a9565b60405180910390f35b6102c160048036038101906102bc9190611db3565b6113a1565b6040516102d5989796959493929190612515565b60405180910390f35b6102f860048036038101906102f3919061259a565b6114b1565b005b610314600480360381019061030f91906121f3565b61174d565b6040516103289897969594939291906125ed565b60405180910390f35b61034b60048036038101906103469190612679565b6118ef565b6040516103589190612818565b60405180910390f35b6005602052826000526040600020602052816000526040600020602052806000526040600020600092509250509054906101000a900460ff1681565b606060046000838152602001908152602001600020805480602002602001604051908101604052809291908181526020016000905b828210156105c25783829060005260206000209060080201604051806101000160405290816000820160009054906101000a900473ffffffffffffffffffffffffffffffffffffffff1673ffffffffffffffffffffffffffffffffffffffff1673ffffffffffffffffffffffffffffffffffffffff168152602001600182015481526020016002820154815260200160038201805461047090612869565b80601f016020809104026020016040519081016040528092919081815260200182805461049c90612869565b80156104e95780601f106104be576101008083540402835291602001916104e9565b820191906000526020600020905b8154815290600101906020018083116104cc57829003601f168201915b5050505050815260200160048201805461050290612869565b80601f016020809104026020016040519081016040528092919081815260200182805461052e90612869565b801561057b5780601f106105505761010080835404028352916020019161057b565b820191906000526020600020905b81548152906001019060200180831161055e57829003601f168201915b505050505081526020016005820160009054906101000a900460ff1615151515815260200160068201548152602001600782015481525050815260200190600101906103d2565b505050509050919050565b6000806000808154809291906105e2906128c9565b9190505590506040518061010001604052808281526020014281526020018581526020013373ffffffffffffffffffffffffffffffffffffffff168152602001620f4240815260200160018152602001600081526020018473ffffffffffffffffffffffffffffffffffffffff16815250600160008381526020019081526020016000206000820151816000015560208201518160010155604082015181600201908161068f9190612abd565b5060608201518160030160006101000a81548173ffffffffffffffffffffffffffffffffffffffff021916908373ffffffffffffffffffffffffffffffffffffffff1602179055506080820151816004015560a0820151816005015560c0820151816006015560e08201518160070160006101000a81548173ffffffffffffffffffffffffffffffffffffffff021916908373ffffffffffffffffffffffffffffffffffffffff16021790555090505060026000828152602001908152602001600020339080600181540180825580915050600190039060005260206000200160009091909190916101000a81548173ffffffffffffffffffffffffffffffffffffffff021916908373ffffffffffffffffffffffffffffffffffffffff160217905550620f42406003600083815260200190815260200160002060003373ffffffffffffffffffffffffffffffffffffffff1673ffffffffffffffffffffffffffffffffffffffff168152602001908152602001600020819055507f6b14f83bb5562a28805993fa10f21032c10f5f0b2ea2e4e7c3b6f170551a080481338660405161083e93929190612b8f565b60405180910390a18091505092915050565b60006003600084815260200190815260200160002060003373ffffffffffffffffffffffffffffffffffffffff1673ffffffffffffffffffffffffffffffffffffffff16815260200190815260200160002054116108e3576040517f08c379a00000000000000000000000000000000000000000000000000000000081526004016108da90612c19565b60405180910390fd5b60056000838152602001908152602001600020600082815260200190815260200160002060003373ffffffffffffffffffffffffffffffffffffffff1673ffffffffffffffffffffffffffffffffffffffff16815260200190815260200160002060009054906101000a900460ff1615610992576040517f08c379a000000000000000000000000000000000000000000000000000000000815260040161098990612c85565b60405180910390fd5b60006004600084815260200190815260200160002082815481106109b9576109b8612ca5565b5b906000526020600020906008020190508060050160009054906101000a900460ff1615610a1b576040517f08c379a0000000000000000000000000000000000000000000000000000000008152600401610a1290612d20565b60405180910390fd5b80600201544210610a61576040517f08c379a0000000000000000000000000000000000000000000000000000000008152600401610a5890612d8c565b60405180910390fd5b60006003600085815260200190815260200160002060003373ffffffffffffffffffffffffffffffffffffffff1673ffffffffffffffffffffffffffffffffffffffff16815260200190815260200160002054905080826007016000828254610aca9190612dac565b92505081905550600160056000868152602001908152602001600020600085815260200190815260200160002060003373ffffffffffffffffffffffffffffffffffffffff1673ffffffffffffffffffffffffffffffffffffffff16815260200190815260200160002060006101000a81548160ff0219169083151502179055507f1fb428dbdff483a0d26139c9ff990fb851b94984d4b95f0fb62f0bfc032454d384843384604051610b809493929190612de0565b60405180910390a18160060154826007015410158015610baf57508160050160009054906101000a900460ff16155b15610c0b5760018260050160006101000a81548160ff0219169083151502179055507f646e6c03c7af143a9a24603e3ed75695bb683446c464bfd940be5832660f7bd08484604051610c02929190612e25565b60405180910390a15b50505050565b610c19611c11565b60016000838152602001908152602001600020604051806101000160405290816000820154815260200160018201548152602001600282018054610c5c90612869565b80601f0160208091040260200160405190810160405280929190818152602001828054610c8890612869565b8015610cd55780601f10610caa57610100808354040283529160200191610cd5565b820191906000526020600020905b815481529060010190602001808311610cb857829003601f168201915b505050505081526020016003820160009054906101000a900473ffffffffffffffffffffffffffffffffffffffff1673ffffffffffffffffffffffffffffffffffffffff1673ffffffffffffffffffffffffffffffffffffffff1681526020016004820154815260200160058201548152602001600682015481526020016007820160009054906101000a900473ffffffffffffffffffffffffffffffffffffffff1673ffffffffffffffffffffffffffffffffffffffff1673ffffffffffffffffffffffffffffffffffffffff16815250509050919050565b600080600460008581526020019081526020016000208381548110610dd757610dd6612ca5565b5b9060005260206000209060080201604051806101000160405290816000820160009054906101000a900473ffffffffffffffffffffffffffffffffffffffff1673ffffffffffffffffffffffffffffffffffffffff1673ffffffffffffffffffffffffffffffffffffffff1681526020016001820154815260200160028201548152602001600382018054610e6b90612869565b80601f0160208091040260200160405190810160405280929190818152602001828054610e9790612869565b8015610ee45780601f10610eb957610100808354040283529160200191610ee4565b820191906000526020600020905b815481529060010190602001808311610ec757829003601f168201915b50505050508152602001600482018054610efd90612869565b80601f0160208091040260200160405190810160405280929190818152602001828054610f2990612869565b8015610f765780601f10610f4b57610100808354040283529160200191610f76565b820191906000526020600020905b815481529060010190602001808311610f5957829003601f168201915b505050505081526020016005820160009054906101000a900460ff1615151515815260200160068201548152602001600782015481525050905080604001514210158015610fc657508060a00151155b91505092915050565b6003602052816000526040600020602052806000526040600020600091509150505481565b60006003600085815260200190815260200160002060003373ffffffffffffffffffffffffffffffffffffffff1673ffffffffffffffffffffffffffffffffffffffff1681526020019081526020016000205411611087576040517f08c379a000000000000000000000000000000000000000000000000000000000815260040161107e90612c19565b60405180910390fd5b60006001600260016000878152602001908152602001600020600401546110ae9190612e7d565b6110b89190612dac565b905060006040518061010001604052803373ffffffffffffffffffffffffffffffffffffffff16815260200142815260200162093a80426110f99190612dac565b8152602001858152602001848152602001600015158152602001838152602001600081525090506004600086815260200190815260200160002081908060018154018082558091505060019003906000526020600020906008020160009091909190915060008201518160000160006101000a81548173ffffffffffffffffffffffffffffffffffffffff021916908373ffffffffffffffffffffffffffffffffffffffff160217905550602082015181600101556040820151816002015560608201518160030190816111cd9190612abd565b5060808201518160040190816111e39190612abd565b5060a08201518160050160006101000a81548160ff02191690831515021790555060c0820151816006015560e08201518160070155505060006001600460008881526020019081526020016000208054905061123f9190612eae565b9050600160008781526020019081526020016000206006016000815480929190611268906128c9565b91905055507f6f3322e9e9bcd9739d7dcbb73278ee28b363d39f7900bd404831ee8dfb41608e868233886040516112a29493929190612ee2565b60405180910390a1505050505050565b600260205281600052604060002081815481106112ce57600080fd5b906000526020600020016000915091509054906101000a900473ffffffffffffffffffffffffffffffffffffffff1681565b60606002600083815260200190815260200160002080548060200260200160405190810160405280929190818152602001828054801561139557602002820191906000526020600020905b8160009054906101000a900473ffffffffffffffffffffffffffffffffffffffff1673ffffffffffffffffffffffffffffffffffffffff168152602001906001019080831161134b575b50505050509050919050565b60016020528060005260406000206000915090508060000154908060010154908060020180546113d090612869565b80601f01602080910402602001604051908101604052809291908181526020018280546113fc90612869565b80156114495780601f1061141e57610100808354040283529160200191611449565b820191906000526020600020905b81548152906001019060200180831161142c57829003601f168201915b5050505050908060030160009054906101000a900473ffffffffffffffffffffffffffffffffffffffff16908060040154908060050154908060060154908060070160009054906101000a900473ffffffffffffffffffffffffffffffffffffffff16905088565b806003600085815260200190815260200160002060003373ffffffffffffffffffffffffffffffffffffffff1673ffffffffffffffffffffffffffffffffffffffff168152602001908152602001600020541015611544576040517f08c379a000000000000000000000000000000000000000000000000000000000815260040161153b90612f7a565b60405180910390fd5b806003600085815260200190815260200160002060003373ffffffffffffffffffffffffffffffffffffffff1673ffffffffffffffffffffffffffffffffffffffff16815260200190815260200160002060008282546115a49190612eae565b9250508190555060006003600085815260200190815260200160002060008473ffffffffffffffffffffffffffffffffffffffff1673ffffffffffffffffffffffffffffffffffffffff16815260200190815260200160002054036116a45760026000848152602001908152602001600020829080600181540180825580915050600190039060005260206000200160009091909190916101000a81548173ffffffffffffffffffffffffffffffffffffffff021916908373ffffffffffffffffffffffffffffffffffffffff16021790555060016000848152602001908152602001600020600501600081548092919061169e906128c9565b91905055505b806003600085815260200190815260200160002060008473ffffffffffffffffffffffffffffffffffffffff1673ffffffffffffffffffffffffffffffffffffffff16815260200190815260200160002060008282546117049190612dac565b925050819055507f3ae4ef7c5f677ec42aa5a2d42c670dbc0b9f65345e4af5365884b378b995707b833384846040516117409493929190612f9a565b60405180910390a1505050565b6004602052816000526040600020818154811061176957600080fd5b9060005260206000209060080201600091509150508060000160009054906101000a900473ffffffffffffffffffffffffffffffffffffffff16908060010154908060020154908060030180546117bf90612869565b80601f01602080910402602001604051908101604052809291908181526020018280546117eb90612869565b80156118385780601f1061180d57610100808354040283529160200191611838565b820191906000526020600020905b81548152906001019060200180831161181b57829003601f168201915b50505050509080600401805461184d90612869565b80601f016020809104026020016040519081016040528092919081815260200182805461187990612869565b80156118c65780601f1061189b576101008083540402835291602001916118c6565b820191906000526020600020905b8154815290600101906020018083116118a957829003601f168201915b5050505050908060050160009054906101000a900460ff16908060060154908060070154905088565b6060600080600190505b6000548110156119785760006003600083815260200190815260200160002060008673ffffffffffffffffffffffffffffffffffffffff1673ffffffffffffffffffffffffffffffffffffffff16815260200190815260200160002054111561196b578180611967906128c9565b9250505b80806001019150506118f9565b5060008167ffffffffffffffff81111561199557611994612042565b5b6040519080825280602002602001820160405280156119ce57816020015b6119bb611c11565b8152602001906001900390816119b35790505b509050600080600190505b600054811015611c055760006003600083815260200190815260200160002060008873ffffffffffffffffffffffffffffffffffffffff1673ffffffffffffffffffffffffffffffffffffffff168152602001908152602001600020541115611bf85760016000828152602001908152602001600020604051806101000160405290816000820154815260200160018201548152602001600282018054611a7f90612869565b80601f0160208091040260200160405190810160405280929190818152602001828054611aab90612869565b8015611af85780601f10611acd57610100808354040283529160200191611af8565b820191906000526020600020905b815481529060010190602001808311611adb57829003601f168201915b505050505081526020016003820160009054906101000a900473ffffffffffffffffffffffffffffffffffffffff1673ffffffffffffffffffffffffffffffffffffffff1673ffffffffffffffffffffffffffffffffffffffff1681526020016004820154815260200160058201548152602001600682015481526020016007820160009054906101000a900473ffffffffffffffffffffffffffffffffffffffff1673ffffffffffffffffffffffffffffffffffffffff1673ffffffffffffffffffffffffffffffffffffffff1681525050838381518110611bde57611bdd612ca5565b5b60200260200101819052508180611bf4906128c9565b9250505b80806001019150506119d9565b50819350505050919050565b604051806101000160405280600081526020016000815260200160608152602001600073ffffffffffffffffffffffffffffffffffffffff168152602001600081526020016000815260200160008152602001600073ffffffffffffffffffffffffffffffffffffffff1681525090565b6000604051905090565b600080fd5b600080fd5b6000819050919050565b611ca981611c96565b8114611cb457600080fd5b50565b600081359050611cc681611ca0565b92915050565b600073ffffffffffffffffffffffffffffffffffffffff82169050919050565b6000611cf782611ccc565b9050919050565b611d0781611cec565b8114611d1257600080fd5b50565b600081359050611d2481611cfe565b92915050565b600080600060608486031215611d4357611d42611c8c565b5b6000611d5186828701611cb7565b9350506020611d6286828701611cb7565b9250506040611d7386828701611d15565b9150509250925092565b60008115159050919050565b611d9281611d7d565b82525050565b6000602082019050611dad6000830184611d89565b92915050565b600060208284031215611dc957611dc8611c8c565b5b6000611dd784828501611cb7565b91505092915050565b600081519050919050565b600082825260208201905092915050565b6000819050602082019050919050565b611e1581611cec565b82525050565b611e2481611c96565b82525050565b600081519050919050565b600082825260208201905092915050565b60005b83811015611e64578082015181840152602081019050611e49565b60008484015250505050565b6000601f19601f8301169050919050565b6000611e8c82611e2a565b611e968185611e35565b9350611ea6818560208601611e46565b611eaf81611e70565b840191505092915050565b611ec381611d7d565b82525050565b600061010083016000830151611ee26000860182611e0c565b506020830151611ef56020860182611e1b565b506040830151611f086040860182611e1b565b5060608301518482036060860152611f208282611e81565b91505060808301518482036080860152611f3a8282611e81565b91505060a0830151611f4f60a0860182611eba565b5060c0830151611f6260c0860182611e1b565b5060e0830151611f7560e0860182611e1b565b508091505092915050565b6000611f8c8383611ec9565b905092915050565b6000602082019050919050565b6000611fac82611de0565b611fb68185611deb565b935083602082028501611fc885611dfc565b8060005b858110156120045784840389528151611fe58582611f80565b9450611ff083611f94565b925060208a01995050600181019050611fcc565b50829750879550505050505092915050565b600060208201905081810360008301526120308184611fa1565b905092915050565b600080fd5b600080fd5b7f4e487b7100000000000000000000000000000000000000000000000000000000600052604160045260246000fd5b61207a82611e70565b810181811067ffffffffffffffff8211171561209957612098612042565b5b80604052505050565b60006120ac611c82565b90506120b88282612071565b919050565b600067ffffffffffffffff8211156120d8576120d7612042565b5b6120e182611e70565b9050602081019050919050565b82818337600083830152505050565b600061211061210b846120bd565b6120a2565b90508281526020810184848401111561212c5761212b61203d565b5b6121378482856120ee565b509392505050565b600082601f83011261215457612153612038565b5b81356121648482602086016120fd565b91505092915050565b6000806040838503121561218457612183611c8c565b5b600083013567ffffffffffffffff8111156121a2576121a1611c91565b5b6121ae8582860161213f565b92505060206121bf85828601611d15565b9150509250929050565b6121d281611c96565b82525050565b60006020820190506121ed60008301846121c9565b92915050565b6000806040838503121561220a57612209611c8c565b5b600061221885828601611cb7565b925050602061222985828601611cb7565b9150509250929050565b60006101008301600083015161224c6000860182611e1b565b50602083015161225f6020860182611e1b565b50604083015184820360408601526122778282611e81565b915050606083015161228c6060860182611e0c565b50608083015161229f6080860182611e1b565b5060a08301516122b260a0860182611e1b565b5060c08301516122c560c0860182611e1b565b5060e08301516122d860e0860182611e0c565b508091505092915050565b600060208201905081810360008301526122fd8184612233565b905092915050565b6000806040838503121561231c5761231b611c8c565b5b600061232a85828601611cb7565b925050602061233b85828601611d15565b9150509250929050565b60008060006060848603121561235e5761235d611c8c565b5b600061236c86828701611cb7565b935050602084013567ffffffffffffffff81111561238d5761238c611c91565b5b6123998682870161213f565b925050604084013567ffffffffffffffff8111156123ba576123b9611c91565b5b6123c68682870161213f565b9150509250925092565b6123d981611cec565b82525050565b60006020820190506123f460008301846123d0565b92915050565b600081519050919050565b600082825260208201905092915050565b6000819050602082019050919050565b60006124328383611e0c565b60208301905092915050565b6000602082019050919050565b6000612456826123fa565b6124608185612405565b935061246b83612416565b8060005b8381101561249c5781516124838882612426565b975061248e8361243e565b92505060018101905061246f565b5085935050505092915050565b600060208201905081810360008301526124c3818461244b565b905092915050565b600082825260208201905092915050565b60006124e782611e2a565b6124f181856124cb565b9350612501818560208601611e46565b61250a81611e70565b840191505092915050565b60006101008201905061252b600083018b6121c9565b612538602083018a6121c9565b818103604083015261254a81896124dc565b905061255960608301886123d0565b61256660808301876121c9565b61257360a08301866121c9565b61258060c08301856121c9565b61258d60e08301846123d0565b9998505050505050505050565b6000806000606084860312156125b3576125b2611c8c565b5b60006125c186828701611cb7565b93505060206125d286828701611d15565b92505060406125e386828701611cb7565b9150509250925092565b600061010082019050612603600083018b6123d0565b612610602083018a6121c9565b61261d60408301896121c9565b818103606083015261262f81886124dc565b9050818103608083015261264381876124dc565b905061265260a0830186611d89565b61265f60c08301856121c9565b61266c60e08301846121c9565b9998505050505050505050565b60006020828403121561268f5761268e611c8c565b5b600061269d84828501611d15565b91505092915050565b600081519050919050565b600082825260208201905092915050565b6000819050602082019050919050565b6000610100830160008301516126eb6000860182611e1b565b5060208301516126fe6020860182611e1b565b50604083015184820360408601526127168282611e81565b915050606083015161272b6060860182611e0c565b50608083015161273e6080860182611e1b565b5060a083015161275160a0860182611e1b565b5060c083015161276460c0860182611e1b565b5060e083015161277760e0860182611e0c565b508091505092915050565b600061278e83836126d2565b905092915050565b6000602082019050919050565b60006127ae826126a6565b6127b881856126b1565b9350836020820285016127ca856126c2565b8060005b8581101561280657848403895281516127e78582612782565b94506127f283612796565b925060208a019950506001810190506127ce565b50829750879550505050505092915050565b6000602082019050818103600083015261283281846127a3565b905092915050565b7f4e487b7100000000000000000000000000000000000000000000000000000000600052602260045260246000fd5b6000600282049050600182168061288157607f821691505b6020821081036128945761289361283a565b5b50919050565b7f4e487b7100000000000000000000000000000000000000000000000000000000600052601160045260246000fd5b60006128d482611c96565b91507fffffffffffffffffffffffffffffffffffffffffffffffffffffffffffffffff82036129065761290561289a565b5b600182019050919050565b60008190508160005260206000209050919050565b60006020601f8301049050919050565b600082821b905092915050565b6000600883026129737fffffffffffffffffffffffffffffffffffffffffffffffffffffffffffffffff82612936565b61297d8683612936565b95508019841693508086168417925050509392505050565b6000819050919050565b60006129ba6129b56129b084611c96565b612995565b611c96565b9050919050565b6000819050919050565b6129d48361299f565b6129e86129e0826129c1565b848454612943565b825550505050565b600090565b6129fd6129f0565b612a088184846129cb565b505050565b5b81811015612a2c57612a216000826129f5565b600181019050612a0e565b5050565b601f821115612a7157612a4281612911565b612a4b84612926565b81016020851015612a5a578190505b612a6e612a6685612926565b830182612a0d565b50505b505050565b600082821c905092915050565b6000612a9460001984600802612a76565b1980831691505092915050565b6000612aad8383612a83565b9150826002028217905092915050565b612ac682611e2a565b67ffffffffffffffff811115612adf57612ade612042565b5b612ae98254612869565b612af4828285612a30565b600060209050601f831160018114612b275760008415612b15578287015190505b612b1f8582612aa1565b865550612b87565b601f198416612b3586612911565b60005b82811015612b5d57848901518255600182019150602085019450602081019050612b38565b86831015612b7a5784890151612b76601f891682612a83565b8355505b6001600288020188555050505b505050505050565b6000606082019050612ba460008301866121c9565b612bb160208301856123d0565b8181036040830152612bc381846124dc565b9050949350505050565b7f4e6f7420612044414f206d656d62657200000000000000000000000000000000600082015250565b6000612c036010836124cb565b9150612c0e82612bcd565b602082019050919050565b60006020820190508181036000830152612c3281612bf6565b9050919050565b7f416c726561647920766f74656400000000000000000000000000000000000000600082015250565b6000612c6f600d836124cb565b9150612c7a82612c39565b602082019050919050565b60006020820190508181036000830152612c9e81612c62565b9050919050565b7f4e487b7100000000000000000000000000000000000000000000000000000000600052603260045260246000fd5b7f50726f706f73616c20616c726561647920706173736564000000000000000000600082015250565b6000612d0a6017836124cb565b9150612d1582612cd4565b602082019050919050565b60006020820190508181036000830152612d3981612cfd565b9050919050565b7f566f74696e6720706572696f6420656e64656400000000000000000000000000600082015250565b6000612d766013836124cb565b9150612d8182612d40565b602082019050919050565b60006020820190508181036000830152612da581612d69565b9050919050565b6000612db782611c96565b9150612dc283611c96565b9250828201905080821115612dda57612dd961289a565b5b92915050565b6000608082019050612df560008301876121c9565b612e0260208301866121c9565b612e0f60408301856123d0565b612e1c60608301846121c9565b95945050505050565b6000604082019050612e3a60008301856121c9565b612e4760208301846121c9565b9392505050565b7f4e487b7100000000000000000000000000000000000000000000000000000000600052601260045260246000fd5b6000612e8882611c96565b9150612e9383611c96565b925082612ea357612ea2612e4e565b5b828204905092915050565b6000612eb982611c96565b9150612ec483611c96565b9250828203905081811115612edc57612edb61289a565b5b92915050565b6000608082019050612ef760008301876121c9565b612f0460208301866121c9565b612f1160408301856123d0565b8181036060830152612f2381846124dc565b905095945050505050565b7f496e73756666696369656e7420766f7465730000000000000000000000000000600082015250565b6000612f646012836124cb565b9150612f6f82612f2e565b602082019050919050565b60006020820190508181036000830152612f9381612f57565b9050919050565b6000608082019050612faf60008301876121c9565b612fbc60208301866123d0565b612fc960408301856123d0565b612fd660608301846121c9565b9594505050505056fea2646970667358221220db13849ac54ceed4a693ccb64d33b90aa9d47c31e2a215748ab823163e87743e64736f6c634300081b0033",
  "linkReferences": {},
  "deployedLinkReferences": {}
}